:020000040800F2
:1000000018080020650100084F1600084716000870
:1000100000000000000000000000000000000000E0
:100020000000000000000000000000008117000830
:1000300000000000000000005116000875180008BC
:100040007701000800000000770100087701000830
:1000500077010008770100087701000877010008A0
:100060000000000077010008770100087701000810
:100070007701000877010008770100080000000000
:100080007701000800000000000000007701000870
:1000900000000000770100087701000877010008E0
:1000A0000000000077010008000000007701000850
:1000B00077010008000000000000000000000000C0
:1000C00000F002F800F03EF80CA030C80838241800
:1000D0002D18671EA246AB4654465D46AC4201D180
:1000E00000F030F87E460F3EB6460FCC0126334274
:1000F00000D0FB1A3343A246AB46184758270000EE
:1001000078270000103A02D378C878C1FAD852078D
:1001100001D330C830C101D504680C6070470000BD
:100120000023002400250026103A01D378C1FBD813
:10013000520700D330C100D50B6070471FB51FBDFB
:1001400010B510BD00F042F91146FFF7F7FF01F0BE
:1001500093FE00F05AF903B4FFF7F2FF03BC00F07E
:1001600061F900000748804707480047FEE7FEE7BF
:10017000FEE7FEE7FEE7FEE704480549054A064BB1
:1001800070470000DD180008C100000818020020B8
:10019000180800201804002018040020034670B539
:1001A00002460B439B070FD10E4CE60100E008C24C
:1001B00008C91D1B9D433542F9D0D9B21170521C9C
:1001C00000290DD01B0AF8E70B78491C1370521C4C
:1001D000002B05D00B78491C1370521C002BF3D157
:1001E00070BD00000101010130B5441C03E001783D
:1001F000401C00290DD08107F9D10B4BDD0104C84B
:10020000D11A91432940FAD0001B0A0603D0C01E20
:1002100030BD001B30BD0A0401D0801E30BD090274
:10022000FCD0401E30BD00000101010101E004C00E
:10023000091F0429FBD28B0701D50280801CC90746
:1002400000D00270704700290BD0C30702D00270A3
:10025000401C491E022904D3830702D50280801C5A
:10026000891EE3E70022EEE70022DFE70022030910
:100270008B422CD3030A8B4211D300239C464EE0C1
:1002800003460B433CD4002243088B4231D303097D
:100290008B421CD3030A8B4201D394463FE0C3092F
:1002A0008B4201D3CB01C01A524183098B4201D347
:1002B0008B01C01A524143098B4201D34B01C01A32
:1002C000524103098B4201D30B01C01A5241C308AA
:1002D0008B4201D3CB00C01A524183088B4201D319
:1002E0008B00C01A524143088B4201D34B00C01A05
:1002F0005241411A00D201465241104670475DE01A
:10030000CA0F00D04942031000D3404253409C46DC
:10031000002203098B422DD3030A8B4212D3890199
:10032000FC2212BA030A8B420CD3890192118B4230
:1003300008D3890192118B4204D389013AD09211DA
:1003400000E08909C3098B4201D3CB01C01A524195
:1003500083098B4201D38B01C01A524143098B425E
:1003600001D34B01C01A524103098B4201D30B0147
:10037000C01A5241C3088B4201D3CB00C01A52416C
:1003800083088B4201D38B00C01A5241D9D2430853
:100390008B4201D34B00C01A5241411A00D2014690
:1003A0005241104663465B1001D34042002B00D5FA
:1003B0004942704763465B1000D3404201B50020BC
:1003C000C046C04602BD704770477047754600F092
:1003D00025F8AE46050069465346C008C00085466C
:1003E00018B020B5FFF7C8FE60BCB646002600274F
:1003F000C0C5C0C5C0C5C0C5C0C5C0C5C0C5C0C5D5
:10040000403D490849008D46704710B50446C04636
:10041000C0462046FFF79FFE10BD00000048704711
:100420002000002001491820ABBEFEE72600020094
:100430007047000070B505460D4805700D4C20460C
:10044000294600F028F80C4E002D09D00BA001F031
:1004500083FC204600F04BF831680120084305E09A
:1004600009A001F079FC306801218843306070BD3B
:10047000E401002000240140140C00504D494320A9
:100480006F6E0D0A000000004D4943206F66660D37
:100490000A0000007047704770B5012630463146AB
:1004A00000F029F80F4C0025204629462A462B4605
:1004B00000F01BF820463146324600F017F820467F
:1004C00029463246FFF7E6FF04212046324600F077
:1004D0000BF8204600F00BF820462946FFF7DBFF1B
:1004E00070BDC04600240140704770477047704798
:1004F0000020704770477047704710B501242046B0
:10050000FFF7FAFF02202146FFF7F5FF03202146FF
:10051000FFF7F1FF0020214601F033F92046FFF7F5
:10052000E9FF0120FFF7E4FF0028FAD010BDEFF348
:10053000108072B6FEE77047F0B58BB000270A97BF
:100540005422825C044654340226012A00D106E17A
:10055000012525700268966804231E4213D1099470
:1005600006694C680794022C13D1042006438F4877
:10057000864256D18C48C0430B68D9430143906AE8
:10058000084090624EE0816D20220A438265012678
:10059000E3E008921E43FA430692834C834A964254
:1005A00052D10D682A462240089B986A104328338E
:1005B0002746099C18602802896801407C4A0A4045
:1005C000069B43400899486918401043486100263B
:1005D000002D00DBC1E00320820576480368194640
:1005E00011402846744DA84200D09DE07D1C2B424E
:1005F00000D0B2E06F480368934319432943016078
:100600006F4800686F49FFF731FE0C21414301201C
:10061000084301E00A98401E0A900A980028F9D180
:100620009BE00B68099C0026002B00DB95E06148ED
:100630000168624A934200D185E05F4A934200D04C
:100640008BE00122920580E01F26079A0196324036
:1006500026460F24009404929440069A5440026E59
:100660000294224003920A6805923242099C79D092
:10067000059AD2077AD1059A92072F4676D4022797
:10068000059A520772D40327059A12076ED4059A69
:10069000D2061F466AD40527059A920666D4062715
:1006A000059A520662D40727059A12065ED40827D7
:1006B000059AD2055AD40927059A920556D40A27D5
:1006C000059A520552D40B27059A12054ED40C27D1
:1006D000059AD2044AD40D27059A920446D40E27CF
:1006E000059A520442D4059A1204009F3ED4102762
:1006F000059AD2033AD41127059A920336D41227C9
:10070000059A520332D41327059A12032ED41427C4
:10071000059AD2022AD41527059A920226D4059A60
:100720005202D217162720E00125AD052B40234F9A
:10073000B84212D1002B10D1BF480368934319432C
:100740002943016008E0184A521C11400322920517
:10075000036893430B430360002600202070F0B22F
:100760000BB0F0BD059A970E019A1740059E049BA9
:100770009F40039A17430766C069079A920882420E
:100780000ED2089DAA6A029802401F46B30E0F209F
:100790001840B84010432B4635462833024F09E72E
:1007A000014F354607E7C046FFFF7F000400008089
:1007B00000FFFF7F08270140000200A4000400A8FA
:1007C00018000020400D0300F0B58BB00446002057
:1007D00008900A900125002C00D120E123465833CF
:1007E000A06D002808D120461D4600F027F92B46B1
:1007F000542000212154E16501252E0722689068CC
:100800003042099216D19068864901403143916087
:100810008548006885492F461D46FFF727FD099A40
:100820002B463D46400001E00A98401E0A900A9877
:100830000028F9D19068304208D1A06D1021014301
:10084000A165E06D012108910843E065906880088A
:10085000284016461A6810273A4002431968002AB1
:1008600002D039430125D9E007970F22D7433846F4
:10087000F3380140022008431860B068284204930E
:100880000597039233D1012006900003216B0029C4
:1008900000D10846A168237E9B030B43617ECE03F3
:1008A0001E43A17E00914B033343E6681E4306437B
:1008B000069BD9072069024601918A435B05029095
:1008C000002800DB1A4616432C20205C43003343EB
:1008D0002020265C012E0FD10099002909D0A16D9E
:1008E0000143A165E06D06990843E06504E02769CE
:1008F0003CE0069800040343606A002805D0072105
:10090000890108401843A36A0343099EF0684849D7
:1009100001401943F1600320870763681846384097
:10092000E66C06433C20205C012807D1206C626CF9
:10093000A16C064316430E4306980643099A1069B4
:100940003C49014031431161019883420DD0BB42C3
:100950000BD006988007834207D003988004034099
:1009600035490E6886431E430E60029F616B099AEB
:10097000506907239843069108435061A06B56695C
:1009800070218E430001304350616805874208D0D2
:10099000002F29D10998866A05990E43024628320C
:1009A00021E000263046039F06E0216EF1403940E9
:1009B0000F2909D0361D401C0828F6D30999886AEA
:1009C0000A462832059F06E009998E6A0A462832AF
:1009D0000128059F06D0E06980001C301C210140E1
:1009E0008F40266E3E43166009984069184006996C
:1009F0008842079A09D10020E065A06D0321884351
:100A000001210143089D049B08E0A06D1221884349
:100A10001043A065E16D29435C34234619602846E4
:100A20000BB0F0BDE8FFFF6F18000020400D030081
:100A30000102FEFF02FCFF1F08270140B0B58EB087
:100A4000044609A81421FFF70FFC02A81C21FFF798
:100A50000BFC20681549884225D100240794012504
:100A6000A803029002A800F05BF9002801D0FFF76C
:100A70005EFD28050E49CA680243CA60CA68024082
:100A8000019201980868284308600868284001908E
:100A900001980B9403200A90C001099005200007DB
:100AA00009A900F007F80EB0B0BDC046002401400F
:100AB00034100240F0B58CB00E46684A042305217C
:100AC000904200D00B460B210907059040180A21DF
:100AD000C8410090042800D300930020C743089029
:100AE00009900B9006960397B1E0012407940A90B1
:100AF00084402540002D00D19EE0736810211943E9
:100B0000122916D11C21099801400F2213468B404F
:100B10007B400A984008534E3040059E3018066AC4
:100B20001E40069F3B6913408B40334303627B6842
:100B3000039F0322184610400B99884002928A4076
:100B40007A4005990E68164006430E60122B069EE9
:100B50001DD80495079D284698404349084213D064
:100B6000059988681040069EF6680B9FBE40039F5B
:100B700006438E60180928400A9EB0407C404E68AB
:100B8000264006434E60069E032B049D54D00599D3
:100B9000C8681040B2680B9CA2400243CA60D800EB
:100BA0004AD51820089908400F2282407A400A9BB3
:100BB00002998B432A490C46E1180B6E1340009AA8
:100BC00082401A430A662A467A40802001902458BF
:100BD000214611402C43079800040290706804904D
:100BE000029B184200D021461D48019BC15084271A
:100BF000C459214611402C4307984004049B0342EA
:100C000000D021461648C1510368194611402B43B4
:100C1000079F3805049C044200D01946104803463B
:100C20001960586802400543780504990142184646
:100C3000039F00D02A4642600B98801C0B900898B6
:100C4000083008900998001D09900A98401C3568E2
:100C50002946C14000D048E70CB0F0BD0014005058
:100C600000180240FCFFFF7F060006000346283301
:100C70001830002A00D00346196070471B4880686E
:100C80007047C046194841688268511881607047B2
:100C900080B5032000F00AF801460120002900D0A9
:100CA00080BD00F025F8002080BD000070B505462D
:100CB0000E4E71680124002915D07D20C000FFF779
:100CC000D5FA0146B7480068FFF7D0FA00F0E0FA1D
:100CD000032D08D8002806D10024E04329462246E7
:100CE00000F01AF83560204670BDC04600000020B4
:100CF00082B04A4841680122114341604168114075
:100D000001910199110702680A43026000680840D6
:100D10000090009802B0704780B501F08BF880BD5C
:100D2000F0B585B00446206801214A0400233B4EFB
:100D3000104243D00A0730680023104207D13068C0
:100D400010433060306810400490049801230393EE
:100D50000292032001900202306A104000281ED047
:100D6000A26990420AD0306A0904326A0A433262A8
:100D7000326A8A4332622A4908403062C0070ED084
:100D8000FFF77CFF0546854F306A0221084206D1F5
:100D9000FFF774FF401BB842F6D9019B06E0306AAA
:100DA0001F490840A16901433162002303980028CC
:100DB00003D030680299884330602068C10705D0AD
:100DC000B16903229143A2680A43B261410606D584
:100DD00003210903B2698A43E1681143B161410407
:100DE00006D503218907B2698A4361691143B1615C
:100DF000010506D503218903B2698A43216911439C
:100E0000B161002807DA3B20C0433158E02291430A
:100E100062680A433250D8B205B0F0BD3C100240BF
:100E2000FFFCFFFFFEB50D46012100284ED00191C9
:100E300002905948006807273840A84215D2564802
:100E400001460868B84328430860544CFFF716FF72
:100E50000646514800683840A84206D0FFF70EFF0A
:100E6000811B0320A142F4D994E0029C2168022056
:100E7000014214D04A0709D57B2212025B4B1E4661
:100E8000336893430B2212021A4332600F2212027C
:100E9000564B1E4633689343E2681A433260C907D3
:100EA0003FD0FA4351490E46B1581C239943A368D9
:100EB0000B43B350616800290AD003290FD00129E0
:100EC00010D14A4882580120430405E0084661E0F9
:100ED00046488258012083021A4208D15AE0434A08
:100EE000926D01E0414A526D0242019852D03F4852
:100EF00002461068B84308431060E44CFFF7BEFE9A
:100F000006463A4800683821014002984068C0000F
:100F1000814206D0FFF7B2FE811B0320A142F0D927
:100F200038E01D4800683840A84215D91A480146E3
:100F30000868B84328430860D44CFFF79FFE064674
:100F4000154800683840A84206D0FFF797FE811B7D
:100F50000320A142F4D91DE0029A1078400707D57A
:100F6000380322490B461968814310690843186009
:100F700000F01AF81D49096889093C220A4008490D
:100F800089581F220A40D040BE490860BE48006808
:100F9000FFF78CFE03B0F0BD002002408813000074
:100FA000BC240008180000201049086838221042AC
:100FB00005D008681040082809D10D48704707205F
:100FC000C2438958C90A0140AD48C84070470B6800
:100FD00013400120C003202B07D00B6813407D2055
:100FE00000020021182B00D008467047081002406C
:100FF00000127A00FEB50127002800D122E10197F6
:1010000002900078C0079D4E1AD1029800788007A0
:1010100025D402980078000700D4E4E0B0683821B5
:101020000140182900D083E0306E0221084200D12F
:10103000D9E0029880690028019F00D0D3E001E147
:10104000B0683821014008292BD101277804316884
:101050000142DAD0029840680028D6D1F2E0B068A8
:10106000382108423CD0029AD1683068002975D0F6
:101070000721C9028843116901433160012001023F
:1010800032680A4332608402FFF7F8FD0546306893
:10109000204276D1FFF7F2FD401B03270228F6D944
:1010A000D0E00298476801242004874207D03168C5
:1010B0000522120497426ED1A204114331603168B7
:1010C00001433160FFF7DAFD0546640430682042D1
:1010D0009BD1FFF7D3FD401B03276428F6D9B1E06D
:1010E0000127B80231680142029B03D0D86800286A
:1010F00000D1A7E07F200002716881435869000297
:10110000084370600720C10232688A43196911439D
:1011100031603168C90A01405948C84059490860DE
:1011200059480068FFF7C2FD002800D08AE070E748
:1011300002988169306E002944D00121084330664D
:10114000FFF79CFD0546306E022108424BD1FFF7A8
:1011500095FD401B03270228F5D973E001210A02FF
:10116000904330608C02FFF789FD054630682042CD
:1011700000D14EE7FFF782FD401B03270228F5D977
:1011800060E07F200002716881430298406900029C
:10119000084370603DE781433160A00431688143BA
:1011A0003160FFF76BFD0546002F8ED16404306877
:1011B000204200D129E7FFF761FD401B0327642887
:1011C000F5D93FE0012188433066FFF757FD05461A
:1011D000306E0221084206D0FFF750FD401B032766
:1011E0000228F5D92EE0029A10780027400729D569
:1011F000B06838210140202908D1F06D0221084251
:1012000020D09168012000291CD11AE091681F4D5F
:10121000012905D0F06D052917D104210843F06597
:10122000F06D01210143F165FFF728FD0446F06DE3
:101230000221084206D1FFF721FD011B0320A9422C
:10124000F5D90746F8B203B0F0BD029101218843F9
:10125000F065F06D04218843F065FFF70FFD04464B
:1012600002980028E3D1F06D02210842EAD0FFF78E
:1012700005FD011B0320A942F5D9E2E70010024059
:10128000006CDC0218000020000000208813000021
:10129000411E01200A0E0DD10748084A5160084935
:1012A0000B6803400320800718430860002090600B
:1012B000072111607047C046FFFFFF0010E000E00B
:1012C00020ED00E0F0B53C22845C02463C32022373
:1012D000012C41D0012313703F242402CD68A54383
:1012E0000F24A6028F68B7432F434D681B4E2E4034
:1012F0003E43F7252D030F68AF4337437B256D032E
:101300000E69AE433E434D6935433D26B603B543B2
:1013100024040E6BA6432E438C69240434430068D6
:10132000534DA84215D10E4D2C40CD690D4E2E4087
:1013300026438C6A24050C4D254035431124640650
:101340000E6AA6432E435B074D6A9D433543CC6A24
:101350002C43446400231370D8B2F0BDFF87F0FF24
:10136000FFFF0FCCFFFF0FDC0000F0DCF0B53C22EC
:10137000845C02463C320223012C25D001231370E9
:101380003D2402250555046866683D30A568384F40
:10139000BC4201D0374604E00F273F05BE434F68EB
:1013A00037437026B7430E683E436660304EB44202
:1013B00002D02E4EB44204D18026B5438968294319
:1013C000A160037000231370D8B2F0BDB0B504461D
:1013D0000120002C2AD03D20205C25463D350028E8
:1013E00005D13C2000212154204600F021F80220A4
:1013F0002870214601C900F0A5FA48210120605457
:101400003E2160543F21605440216054412160548A
:10141000422160544321605444216054452160546A
:10142000462160544721605428700020B0BD000060
:1014300082B000680D4988420DD00D49884213D111
:101440000120C0020B494A6802434A6049680140D2
:101450000191019808E007480168022211430160E8
:10146000006810400090009802B0704700040040EF
:10147000002C01403C100240F8B504463C20205CA2
:1014800025463C350222012871D001262E703D20D0
:101490000222225420688268374B1340836027461B
:1014A0003D370B680022002B24D0102B22D0202B9C
:1014B00020D0302B1ED0402B23D0502B2BD0602B94
:1014C00033D07403A3423CD03403A3424CD0702BDE
:1014D00050D14A6800928B68CA68FF242402816850
:1014E000A143009C234312021A430A43826081688D
:1014F000772236E08168214A0A40134307211943C5
:101500001DE0CA68496800F085FB206881681B4AB5
:101510000A40472112E0CA68496800F07BFB206856
:101520008168164A0A40572108E0CA68496800F0F5
:1015300082FB20688168114A0A406721114381605B
:1015400011E04A6800928B68CA68FF24240281680F
:10155000A143009C234312021A430A438260B10351
:1015600082680A43826000223E7000202870D0B258
:1015700001B0F0BD0122F7E78800CEFF88FFCFFF62
:10158000B0B53C23C55C04463C340223012D26D073
:10159000012323700225EA41052A1ED87A441279D4
:1015A0005200974402060A0E1216006800F010FA64
:1015B00012E0006800F03CFA0EE0006800F06AFA01
:1015C0000AE0006800F09EFA06E0006800F0C6FA43
:1015D00002E0006800F0ECFA002300202070D8B28E
:1015E000B0BDB0B504460120002C2AD03D20205CBF
:1015F00025463D35002805D13C20002121542046B8
:1016000000F020F802202870214601C900F09AF964
:101610004821012060543E2160543F216054402104
:10162000605441216054422160544321605444215C
:10163000605445216054462160544721605428700D
:101640000020B0BD7047FEE7704770477047FEE767
:1016500070470000F8B520244848802101557F21BB
:10166000CB4319461031222281541946403124229D
:10167000815419466031262281541946613128224D
:101680008154194662312A228154194663312C2231
:101690008154194664312E22815419466531302215
:1016A000815419466631322541551D46673534212E
:1016B000009145541D4668353627C5551D46693588
:1016C000382685551D466A353A21455419466B31F1
:1016D0003C2541551021817600250576047740216F
:1016E00081771C467D34445419467C313E24015593
:1016F00019467E31422401557F3344214354212130
:10170000455423214554252145542921425427215C
:1017100042542D2142542B214254312142542F2333
:101720003324C4543523C15407553923C154C576D5
:101730004577C5773D23C154372142543B21465458
:101740003F21782242544121562242544321009A9B
:101750004254452112224254032141760570F4BDC2
:1017600002460020162A07D8002905D05000034A57
:101770001018407E087001207047C046D00000203D
:1017800070477047B0B5044615480470204600F015
:10179000AEF8204600F0ACF8124D002C0DD012A08F
:1017A00000F0DAFA28681021084328602868084306
:1017B0002860012000F0B4F8B0BD0EA000F0CCFA13
:1017C0001020C04329680140296029680140296030
:1017D0000B480078002800D0B0BD0020EAE7C046E2
:1017E000FD01002014040050536F756E64206F6E6D
:1017F0000D0A0000536F756E64206F66660D0A0057
:101800001B01002010B50446611C12A000F0BEFAB6
:101810001249002008801249087012490880232CC0
:1018200016D811492201114B9C1811C10860995E0C
:10183000002906D00E48FEF723FD80B2617B00F040
:1018400023FA0124204600F051F8204600F052F817
:1018500010BDC046546F6E653A00000020010020A4
:10186000E50100201E0100200C00002012260008C7
:1018700060D8030080B5FFF705FA80BD10B58CB0C5
:1018800005AC201D1821FEF7EFFC68461421FEF779
:10189000EBFC01200102089102210591000309904F
:1018A00040200A902046FFF7A5FB002803D0EFF365
:1018B000108072B6FEE7002104910391029101911C
:1018C000072000906846FFF7ADFA002803D0EFF339
:1018D000108072B6FEE70CB010BD00000120C006FB
:1018E000014908607047C04608ED00E07047704746
:1018F0007047704770477047B0B5054B0024324DB4
:101900001D601D1D17C55C611846FFF75FFDB0BD6A
:10191000300100200A490968C04308617047C04689
:101920007047704710B5064A0023B74C14605060EA
:101930009360D160136153611046FFF747FD10BDFE
:1019400080000020F0B50568B14EB04FAE4A90421D
:1019500002D01D4B98420BD1C41B00273B1B634197
:10196000861BBC1B74417026B5434E682E4311E0A4
:10197000C41B0022131B6341861B941B7441134A32
:10198000904206D0B84204D0A14A90422E4601D0DF
:1019900005E02E46032212029643CD68354380228D
:1019A00095434A692A4302608A68C2620A68826271
:1019B000002B04D1944A904201D0002C01D0096937
:1019C000016301214161F0BD00040040002000409E
:1019D00070B5026A01239A430262026A02239A43A3
:1019E000436885698C681443444E2E400A6832432C
:1019F000854DA84205D0854DA84202D0844DA8420D
:101A00000DD10C25AC43CD680426B54325430324F2
:101A10002402A3434C698E691C43344301E02546EC
:101A20001C464460826149684163056270BDC046DE
:101A300070B5026A10239A430262046A202294431A
:101A4000436885698A6812012243434E2E400C6820
:101A5000240234436C4DA84206D06C4DA8420AD0F3
:101A60006B4DA84207D00FE0C025AA43CD682D01D9
:101A70004F26B5432A430325AD02AB434D698E691A
:101A8000AD001D43B3002B4343608461496881630B
:101A9000026270BD70B501242202036A934303629F
:101AA000056A4268C369154E1E400B6833436402E1
:101AB000A5438C6824022C43534DA84206D0534DB5
:101AC000A8420BD0524DA84208D010E00325AD0229
:101AD000AC43CD682D020A4E2E40344303252D031E
:101AE000AA434D698E692D01154332012A43426094
:101AF000C3614968C163046270BDC0468CFFFEFFCC
:101B000000FBFFFFF0B501231A03046A944304624B
:101B10005A03056A95434468C6698A6812032A43D2
:101B20000D4F37400D682D023D43374EB04205D072
:101B3000364EB04202D0364EB04205D19B039C4394
:101B40004B699B01234300E023464360C56149681C
:101B500001640262F0BDC046FF8CFFFE70B5134AFF
:101B600013467033046A1C400462066A4468456D7B
:101B700015400A682A4301256D04AE438D682D0483
:101B80003543214EB04205D0204EB04202D0204E07
:101B9000B04204D11C404B691B02234300E02346A2
:101BA0004360426549688165056270BD8FFFFEFF35
:101BB000F0B501231A05046A944304625A05056AC4
:101BC00095434468466D8A6812052A430D4F374095
:101BD0000D682D023D430C4EB04205D00B4EB04275
:101BE00002D00B4EB04205D19B049C434B699B0233
:101BF000234300E02346436045654968C1650262AE
:101C0000F0BDC046FF8FFFFE002C014000480140A0
:101C100000440140B0B5036A046A0125AC43046284
:101C20008469F025AC431201224382610A22934366
:101C30000B430362B0BD10B5036A1024A3430362D3
:101C40000F231B0384699C4312032243036A8261AE
:101C5000A022934309011943016210BDB0B50124CC
:101C60007D212046FFF75EFE2046FFF753FE02254A
:101C700028462146FFF755FE0020FFF751FE0621BA
:101C80002846FFF738FEB0BDBCB50D46024601241C
:101C900002212046FFF730FE074868430749FEF758
:101CA000E5FA0246064802706846046000200146D4
:101CB0002346FFF71EFEBCBD60D8030040420F0064
:101CC0001C010020B4200F4900220A54B720FF2233
:101CD0000A54087808221043087048781043487066
:101CE00009480321C1700179CF220A400271012104
:101CF0004170342101702448016820220A430260A7
:101D00007047C0460C50000032520000F0B5024649
:101D10000E4B1D780E4C2078002D15D0012813D1C4
:101D20008D4200D30D4600260A4902E08F5D97558B
:101D3000761CAE42FAD300221A70227002E0002311
:101D40008B54521C142AFAD1F0BDC046FC0100206D
:101D5000E60100200402002010B50446FEF744FA14
:101D6000064901220A7006490C60064908700648B7
:101D7000016840220A43026010BDC04619010020DC
:101D8000000200201A01002004380140F0B591B093
:101D90000C460546FEF728FAC7B238460830322806
:101DA00004D320A004A93CC83CC135E0019004AE96
:101DB00030462946FEF7F2F90097F019401D0390CE
:101DC0000520C0430290062718E0A5B2002D0ED0D2
:101DD0000A2628463146FEF749FA04460398C019F8
:101DE0006643A91B30220A430299425405E0039836
:101DF000C0192021029A815400247F1E002FE4D1B3
:101E000004A82021009A815481180A22CA710D2247
:101E10008A710021019A815404A8FFF79DFF11B037
:101E2000F0BDC0465465787420746F6F206C6F6E7F
:101E3000670D0A00002805DB0322034693430C4A82
:101E40009A1806E00F220240083A03239A43074BF0
:101E5000D218C000182303408801C0B29840FF2167
:101E6000994013688B430343136070471CED00E0F7
:101E700000E400E070470000F0B59DB0FEF708FFF9
:101E8000FFF7FCFC00240694A048016801252943C3
:101E90000160016829400F910F99016802221143E6
:101EA0000160006810400F900F9805200707212659
:101EB000384631462246FEF7D9FE954873210091F7
:101EC0002246FEF7D3FE039502960494059402AED3
:101ED000384631468F4A904703940620019002907D
:101EE000049438462F4631468A4DA8472A46039720
:101EF0000098029004940594854D284631469047F9
:101F00008548039008200290049428463146814A6F
:101F10009047122003900320C0010290049405947E
:101F200001980690284631467A4A904720217B48FE
:101F300044542C2144543C21445404210483847689
:101F4000C76144628462C464754ABB071CC00460F4
:101F50004460816044628462C46204940394029485
:101F60000C38FEF731FC002803D0EFF3108072B676
:101F7000FEE7002003906B4902910490674802A994
:101F8000FEF7DAFA002803D0EFF3108072B6FEE70E
:101F900000261296119610960F961B961A96199671
:101FA00002A81C21FEF760F95F486049604C42C0FE
:101FB00006604460866006610838FFF707FA00286B
:101FC00003D0EFF3108072B6FEE73D030F9556483D
:101FD0000FA9FFF751FA002803D0EFF3108072B673
:101FE000FEE75148FFF7FDFA002803D0EFF3108019
:101FF00072B6FEE71B9619964B4819A9FFF7B6F97A
:10200000002803D0EFF3108072B6FEE700200390A3
:10201000029004900690444802A90422FFF7B0FA07
:10202000002803D0EFF3108072B6FEE700261C965E
:102030001B961A9619961896179616960FA81C2195
:10204000FEF712F902A83421FEF70EF939483A4991
:1020500042C0066044608660C66006610838FFF7CB
:10206000B5F9002803D0EFF3108072B6FEE719959A
:10207000304819A9FFF700FA002803D0EFF31080C9
:1020800072B6FEE72B48FFF7ACFA002803D0EFF357
:10209000108072B6FEE70020179016901890254821
:1020A00016A9FFF763F9002803D0EFF3108072B68A
:1020B000FEE70FAD1C212846FEF7D6F81D48002488
:1020C00029462246FFF75CFA002803D0EFF3108080
:1020D00072B6FEE702AD14212846FEF7C5F8089453
:1020E0007803079009940A9478060B900C940D9449
:1020F0000E9410482946FFF7E5F8002803D0EFF3C7
:10210000108072B6FEE700F019F8FEE734100240C6
:1021100000040050B50A00080000111080010020E2
:10212000002401408000001C300100200004004019
:10213000FFFF000080000020002C0140F0B589B0B6
:1021400003A81421FEF790F8FEF7D7F9FFF7BAFDC0
:10215000FEF7F1F9FEF7A0F9FFF776FAFFF77AFA42
:10216000FFF77CFDBA49086801220292904308609B
:1021700008680222019290430860B648FFF7ECFD20
:10218000FFF778FEB44DC74FC74E2878012800D01E
:1021900091E003AC142520462946FEF765F8204659
:1021A0002946FFF7B3FD0020AC49087060780D2880
:1021B00009D103A800783128A74D00D276E039284C
:1021C00016D8CF306EE003A989780D29A24D00D032
:1021D0006FE003A90978312900D267E00246303A5E
:1021E000D2B2322900D949E00A2A00D24AE05DE0A1
:1021F0004138392800D959E04000C04678448088E9
:102200004000874439005300D700D9005300DD0057
:102210005300DF00530053005300EB00F400530061
:102220005300010153005300030153000A01180138
:1022300053001C015300200153005300530053006E
:102240005300530039005300D700D9005300DD007C
:102250005300DF00530053005300EB00F400530021
:102260005300010153005300030153000A011801F8
:1022700053001C015300200101209EE0062A15D8BE
:10228000332913D177A2754B30CA30C3724D1488ED
:1022900092789A701C80714A907151710A224A4357
:1022A0008018EF30C0B2FFF7ADFA02E06C48FFF7DC
:1022B00053FD002028703878002800D165E708A871
:1022C000002101707078002817D0012408A9204649
:1022D000FFF746FA00280ED008AD28782040FFF717
:1022E00051FA28785C4D2040FEF7A4F80898400881
:1022F0002040FFF7AAF900207070B07800280DD0B8
:10230000022008A9FFF72CFA002805D008984008F9
:1023100002990840FEF78EF80020B070F07800288F
:1023200010D0032008A9FFF71BFA002808D008A83E
:102330000078002801D0012000E00220FFF786F994
:102340000020F070307900280BD0042008A9FFF796
:1023500007FA002803D008A80078FFF753FA0020F6
:1023600030717079002821D0052008A9FFF7F8F90D
:10237000002819D008A80178354802681046029B49
:1023800098431A43194200D01046314A106012682F
:102390001046019B98431A43194200D010462C4A1C
:1023A000106042A0FFF7F2FC002070713878401EE8
:1023B0003870EAE600203FE00020FFF7E3F978E715
:1023C000022041E02FA0FFF7C7FC21480146086822
:1023D000019A104308600868029A13E02DA0FFF7E5
:1023E000BBFC1B4801460868029A10431DE027A069
:1023F000FFF7B2FC164801460868029A904308604D
:102400000868019A104314E0012019E018A0FFF7B2
:10241000A3FC00F051F819A049E720A0FFF79CFCAD
:102420000B4801460868029A904308600868019AC0
:10243000904308603DE70120FDF7FCFF39E70020ED
:10244000FFF703F935E70120FFF700F931E7C04650
:1024500014040050FC240008E6010020E8010020DC
:10246000FE25000857617665207878203A20000024
:10247000536C656570546573740D0A006177616B08
:10248000650D0A00486967680D0A00004D65640D16
:102490000A0000004C6F770D0A000000556C6F7742
:1024A0000D0A0000D0000020D1000020546F6E659E
:1024B00020617474656E3A0030BF70470000000000
:1024C000000000000000000000000000000000000C
:1024D00000000000000000000000000001000000FB
:1024E00002000000030000000400000006000000DD
:1024F0000700000008000000090000000D0A0D0A96
:1025000030302E30302E30332C31362F31302F31C9
:10251000380D0A5B312D33355D3D546F6E65730D9B
:102520000A5B752C6C2C6D2C685D3D53504C20550E
:102530004C2F4C2F4D2F480D0A5B612C645D3D5391
:102540006F756E646572206F6E2F6F66660D0A5B25
:102550007A2C662C782C705D3D4C4544206F6E20A3
:1025600031732F6F6E20302E35732F6F66662F50AC
:10257000574D0D0A5B632C765D3D4D4943206F6ED0
:102580002F6F66660D0A5B712C772C652C722C748C
:102590005D3D504C2C203530252C202831302C200E
:1025A00035302C203135302C203235302975730DE3
:1025B0000A5B2B2C2D5D3D5057202B2F2D203125D4
:1025C0000D0A5B2B2B2C2D2D5D3D5057202B2F2DD5
:1025D000203130250D0A5B735D3D536C6565700DD0
:1025E0000A5B685D3D48616C740D0A5B6F707469CD
:1025F0006F6E5D5B52455455524E5D0D0A00556E2F
:102600006B6E6F776E20636F6D6D616E642E0D0A59
:1026100000002A0200006400B8010000900101C817
:102620000000F401BC02AC0D00000000F40101C880
:102630000000A4010000710200000000710201C846
:102640000000F401BC02F40100000000F40103C822
:10265000E803CA030000F40100000000F40103C80D
:10266000E803220B0000F40100000000F4010396CF
:10267000E803B00444FDE803B00444FDE80301C8E6
:102680000000F401BC02A60E00000000FA0001C820
:10269000000020030000E80320030000D00707C863
:1026A0000000CA030000F40100000000F40101C8AA
:1026B0000000220B0000F40100000000F40101966C
:1026C000000094020000960000000000960001C87F
:1026D000000094020000E80394020000D00707C83D
:1026E000000020030000FA00CA030000FA0001C83D
:1026F0000000E803DC05F40100000000F40103968B
:10270000E803B6030000F40100000000F40103C870
:10271000E803CA030000E803CA030000D00707C8A3
:1027200000002003AA004D012003AA004D0101C8AA
:1027300000002003AA006F002003AA006F0001C858
:10274000000060090000E80360090000D007079658
:102750000000CA030000F40176020000F40101C881
:1027600000002003AA00E8032003AA00E80301C830
:10277000000020030000F401CA030000F40101C8B6
:1027800000006009F4016F006009F4016F00019618
:1027900000006009F4014D016009F4014D0101964A
:1027A000000020030000FA0076020000FA0001C8D1
:1027B000000090010000E80390010000D00707C866
:1027C000000026020000E803B8010000E80301C889
:1027D0000000DC05B0044D01DC05B0044D0101969C
:1027E000000026020000BC02E80300004A0101C804
:1027F0000000FA00B6035300FA00B603530001C804
:10280000000020030000F401E8030000F40101C807
:10281000000020030000FA00CA030000FA0002C80A
:10282000581B00000000E80300000000E80301C896
:10283000102720030000640000000000D00701C83A
:10284000D007980814057D00AC0DECFA7D000196C8
:102850000000000080280008000000202000000088
:1028600004010008A028000820000020F80700004C
:10287000200100080000000000000000000000002F
:102880000400000001000000000000000000000043
:102890001226000800000000006CDC0200000000AE
:04000005080000C12E
:00000001FF
